:04012B008000016BE4
:1001170002080000021A0000C180C181011200011B
:020127001300C3
:100003001203B41203CAD2AF1204091203F9120283
:08001300E21203EDC2CB80F6FE
:03001B000200C41C
:1000C400C0E0C0D00509E50970020508640A4508C6
:1000D4007004F508F509051BE51B7002051A64C8D0
:1000E400451A7004F51AF51BD3E5159400E514942C
:1000F400004008E515151570021514D3E50D94009C
:10010400E50C94004008E50D150D7002150CD0D0D7
:03011400D0E03206
:1002E200E50945087062F50875090112039A8F1233
:1002F200E5126519FF5512F518E512F45FF50A8546
:100302001219E518600675140B7515B8E519600B1E
:10031200E51545147005300102C201E50A6002D2FA
:1003220001E5154514602130001EE50A24FE600D2A
:1003320014601024027011A2CBB392CB22A285B317
:09034200928522A286B392862264
:0C03ED00E51B451A7005F51A751B01226E
:1003DD008E0C8F0DD3E50D9400E50C940050F52295
:050404008E0E8F0F2297
:0B03F9007FC87E00120404750B302248
:10039A00E4FF2081020F222080037F022220C6036D
:0903AA007F032220C5037F042219
:0103B3002227
:1003CA00438E4053890F758BCD758DD4C28FD28ED3
:0303DA00D2AB2281
:1003B400E4F594F593F592F591F596F595F5B2F586
:0603C400B1F5B4F5B3220F
:03040900D2CA2232
:06001E008B218A228923D8
:10002400E4F528F527C3E5279402748094804003FF
:100034000200C3AB21AA22A923852882758300125A
:10004400034B24D0B40A00505B90005B75F003A40A
:10005400C58325F0C5837302007902007B0200800A
:1000640002008502008A02008F02009402009902B5
:10007400009E0200A3802D752960802B7529DA80EB
:10008400267529F28021752966801C7529B680178A
:100094007529BE80127529E0800D7529FF800875C9
:1000A40029F680037529FCAB24AA25A92685278275
:0F00B400758300E5291203780527052802002926
:0100C300221A
:06012F008B2A8A2B892CAB
:10013500E52F14601F14603A146066147003020101
:10014500DE24046003020214C2A5D283D2C2D2A760
:10015500D2A4800AC2A4D283D2C2D2A7D2A5AB2A86
:10016500AA2BA92C852F8275830012034BF530022B
:100175000214C2A7D283D2C2D2A4D2A5ED146012B2
:10018500146014146016240360030202147530FC15
:10019500807D75306080787530DA80737530F280D7
:1001A5006EC2C2D283D2A7D2A4D2A5E52EC413545F
:1001B5000730E0057530E08003E4F530E52E1313D4
:1001C50013541F30E00543301880035330E7E52E04
:1001D5001313543F30E035802EC283D2C2D2A7D24A
:1001E500A4D2A5E52EC4540F30E0057530E0800398
:1001F500E4F530E52EC31330E00543301880035392
:1002050030E7E52E30E00543300680035330F9E54D
:1002150030C4131313540124FF92A1E530C4131302
:1002250054031392A2E530C41354071392A3E53087
:10023500C4540F139280E530131313541F13928186
:10024500E5301313543F139282E530C3131392C361
:010255002286
:03000000020256A3
:0C025600787FE4F6D8FD75813002029D2F
:10034B00BB010CE58229F582E5833AF583E0225067
:10035B0006E92582F8E622BBFE06E92582F8E222B1
:0D036B00E58229F582E5833AF583E49322CB
:10037800F8BB010DE58229F582E5833AF583E8F0BB
:10038800225006E92582C8F622BBFE05E92582C867
:02039800F2224F
:10026200020003E493A3F8E493A34003F68001F2AF
:1002720008DFF48029E493A3F85407240CC8C3339D
:10028200C4540F4420C8834004F456800146F6DF6C
:10029200E4800B0102040810204080900117E47EE4
:1002A200019360BCA3FF543F30E509541FFEE49361
:1002B200A360010ECF54C025E060A840B8E493A328
:1002C200FAE493A3F8E493A3C8C582C8CAC583CA53
:1002D200F0A3C8C582C8CAC583CADFE9DEE780BE0B
:0101290000D5
:00000001FF
