:04012B008000016BE4
:100B7200020A0000021B0000C180C18101140001B1
:050B820008000109005C
:100AE700120B31120B88D2AF120BC7120BB7120AB7
:100AF7002F120BABC2CBC285C286D2C8D2B5D29356
:100B0700D2A1D2A4D2A5D2A0C2B3C2B6C296C29471
:100B1700C2C7C2B4C297C295C2A2C2A6C2C3C2C14B
:0A0B2700C2B7C2A3C2C4C2C280C498
:03001B000209C413
:1009C400C0E0C0D0050BE50B7002050A640A450AB5
:1009D4007004F50AF50B051CE51C7002051B64C8C0
:1009E400451B7004F51BF51CD3E5169400E515941E
:1009F400004008E516151670021515D3E50F94008E
:100A0400E50E94004008E50F150F7002150E050859
:100A1400E508D3940340037508000509E509D39458
:0B0A2400034003750900D0D0D0E03281
:100A2F00E50B450A7062F50A750B01120B588F140E
:100A3F00E514651AFF5514F519E514F45FF50C85E7
:100A4F00141AE519600675150B7516B8E51A600BC3
:100A5F00E51645157005300102C201E50C6002D2A2
:100A6F0001E5164515602130001EE50C24FE600DD2
:100A7F0014601024027011A2B2B392B222A285B3F5
:090A8F00928522A286B392862210
:0C0BAB00E51C451B7005F51B751C0122A4
:100B9B008E0E8F0FD3E50F9400E50E940050F522C7
:050BC2008E108F1122CE
:0B0BB7007FC87E00120BC2750D3022BB
:100B5800E4FF2081020F222080037F022220C603A7
:090B68007F032220C5037F042253
:010B71002261
:100B8800438E4053890F758BCD758DD4C28FD28E0D
:030B9800D2AB22BB
:100B3100759460E4F593759208F591759633F59582
:100B410075B22CF5B1F5B4F5B375CA05F5C9F5CC97
:070B5100F5CBF5E2F5E1220E
:030BC700D2CA226D
:060800008B218A228923EE
:10080600E4F528F527E527C3940240030208A1ABC7
:1008160021AA22A923852882758300120A9824D04A
:10082600B40A00505B90083975F003A4C58325F01F
:10083600C5837302085702085902085E020863025C
:10084600086802086D02087202087702087C02082E
:1008560081802D752960802B7529DA80267529F20D
:100866008021752966801C7529B680177529BE807A
:10087600127529E0800D7529FF80087529F6800319
:100886007529FCAB24AA25A926852782758300E550
:0B08960029120AC50527052802080BDF
:0108A1002234
:0608A2008B2A8A2B892C31
:1008A800ED14601414601B14602A24037040C2B253
:1008B800D293D2B5D2C88012C2C8D293D2B5D2B21E
:1008C8008008C2B5D293D2C8D2B2AB2AAA2BA92C1F
:1008D8008D828012C293D2B5D2C8D2B2AB2AAA2BCB
:1008E800A92CAF058F82758300120A98F52DE52D86
:1008F800C4131313540124FF92B3E52DC4131354E6
:10090800031392B6E52DC4135407139296E52DC42C
:10091800540F139294E52D131313541F1392C7E524
:0F0928002D1313543F1392B4E52DC3131392975D
:01093700229D
:03000000020938BA
:0C093800787FE4F6D8FD75812D02097F60
:100A9800BB010CE58229F582E5833AF583E0225013
:100AA80006E92582F8E622BBFE06E92582F8E2225D
:0D0AB800E58229F582E5833AF583E4932277
:100AC500F8BB010DE58229F582E5833AF583E8F067
:100AD500225006E92582C8F622BBFE05E92582C813
:020AE500F222FB
:10094400020AE7E493A3F8E493A34003F68001F2D8
:1009540008DFF48029E493A3F85407240CC8C333B4
:10096400C4540F4420C8834004F456800146F6DF83
:10097400E4800B0102040810204080900B72E47E96
:10098400019360BCA3FF543F30E509541FFEE49378
:10099400A360010ECF54C025E060A840B8E493A33F
:1009A400FAE493A3F8E493A3C8C582C8CAC583CA6A
:1009B400F0A3C8C582C8CAC583CADFE9DEE780BE22
:010B8700006D
:00000001FF
