:04012B008000016BE4
:101077005354433848384B3634552055415254322F
:1010870020546573742050726F6772616D6D6521AE
:0E1097000D0A002D2D2D2564002D2D2D2D0070
:10115C0002220000023F0000C18AC18B013600014F
:02116C0037004A
:100FEB001210A512116F7F021210F3D2AF1211A2C1
:100FFB001211927BFF7A107977121146E53B653A15
:10100B00601F20091C7400253BF582E43400F58336
:10101B00E0F59BD209053BE53BC394404003E4F567
:0F102B003B120F1E120F93C2CBC285C28680CD1F
:03001B00020CBC18
:100CBC00C0E0C0F0C083C082C0D075D000C000C0FE
:100CCC0001C002C003C004C005C006C0070523E56F
:100CDC002370020522640A45227004F522F52305CF
:100CEC0040E5407002053F64C8453F7004F53FF590
:100CFC0040D3E5399400E53894004008E5391539BE
:100D0C0070021538D3E52E9400E52D94004008E5CB
:100D1C002E152E7002152D7B007A007924AD37121A
:100D2C000D607B007A007929AD37120DF90537E596
:100D3C0037D394034003753700D007D006D005D0C5
:100D4C0004D003D002D001D000D0D0D082D083D038
:040D5C00F0D0E032C1
:100F1E00E5234522706EF52275230112112C8F36B2
:100F2E00E536653DFF5536F53CE536F45FF528852B
:100F3E00363DE53C600675380B7539B8E53D600BFE
:100F4E00E53945387005300B02C20BE5286002D238
:100F5E000BE5394538602D300A2AE52824FE601548
:100F6E0014601914601C2403701A052FE52FD394F6
:100F7E000340118003D52F0CE4F52F22A2CAB392A1
:050F8E00CA22052F221C
:100F9300E540453F7051F53F754001750FFF7510F2
:100FA3001075119AF512852F13FB7A007932120806
:100FB3005C750F007510007511247B007A0079327F
:100FC300120B5C750FFF7510107511A07B007A0072
:100FD300793212085C750F007510007511297B00BA
:080FE3007A007932120B5C2246
:101182008E2D8F2ED3E52E9400E52D940050F5225E
:05119D008E308F3122AD
:0B1192007FC87E0012119D753E3022C8
:10114600120C0C6010F59BD2092009FD740129F9D7
:06115600E43AFA80EB22EE
:10111200AD07AC06538EEF538EF7438E048CD6AFD9
:0A112200058FD753AFFB438E102258
:1010F300EF640270197FE87EFF121112539A7F4347
:0F110300AF01439A1053BAFEC209F53BF53A22E9
:0300430002103A6E
:10103A00C0E0C083C082C0D0E59A30E01D539AFE5A
:10104A007400253AF582E43400F583E59BF0053A0D
:10105A00E53AC394404003753A00E59A30E10553F6
:0D106A009AFDC209D0D0D082D083D0E032F0
:10112C00E4FF2081020F222080037F022220C603CD
:09113C007F032220C5037F042279
:011145002287
:10116F00438E4053890F758BCD758DD4C28FD28E20
:03117F00D2AB22CE
:1010A500759460E4F593759208F591759633F59509
:1010B50075B22CF5B1F5B4F5B375CA05F5C9F5CC1E
:0710C500F5CBF5E2F5E12295
:0311A200D2CA228C
:060B5C008B0C8A0D890ECE
:100B6200E4F513F512E512C394044003020C0BAB37
:100B72000CAA0DA90E851382758300120C2524D3AD
:100B8200B40D005069900B9575F003A4C58325F050
:100B9200C58373020BEB020BF0020BF0020BBC02DB
:100BA2000BBE020BC3020BC8020BCD020BD2020B0F
:100BB200D7020BDC020BE1020BE6803275140C80CB
:100BC200307514DA802B75149E802675142E8021C0
:100BD2007514B6801C7514F6801775141C80127576
:100BE20014FE800D75143E8008751402800375147E
:100BF200FCAB0FAA10A911851282758300E51412AD
:090C02000C5205120513020B67E8
:010C0B0022C6
:060D60008B088A09890AD4
:100D6600ED1460101460151460242403703AD293B5
:100D7600C2B58004D2B5C293C2C88006D2C8C29397
:100D8600C2B5C2B2AB08AA09A90A8D828012D2B234
:100D9600C293C2B5C2C8AB08AA09A90AAF058F8219
:100DA600758300120C25F50BE50BF4FFC413131322
:100DB600540124FF92B3EFC4131354031392B6E500
:100DC6000BF4FFC4135407139296EFC4540F1392F7
:100DD60094E50BF4FF131313541F1392C7EF131369
:100DE600543F1392B4E50BF4FFC313139297EF131A
:020DF6009295D4
:010DF80022D8
:060DF9008B088A09890A3B
:100DFF00ED1460101460151460242403703AD2A00F
:100E0F00C2A58004D2A5C2A0C2A48006D2A4C2A04B
:100E1F00C2A5C2A1AB08AA09A90A8D828012D2A1CC
:100E2F00C2A0C2A5C2A4AB08AA09A90AAF058F82A6
:100E3F00758300120C25F50BE50BF4FFC413131388
:100E4F00540124FF92A2EFC4131354031392A6E587
:100E5F000BF4FFC41354071392C3EFC4540F139230
:100E6F00C1E50BF4FF131313541F1392B7EF1313B2
:100E7F00543F1392A3E50BF4FFC3131392C4EF1364
:020E8F0092C20D
:010E9100223E
:03000000020E925B
:0C0E9200787FE4F6D8FD758140020ED98F
:100C0C00BB010689828A83E0225002E722BBFE02E6
:090C1C00E32289828A83E4932219
:100C2500BB010CE58229F582E5833AF583E0225084
:100C350006E92582F8E622BBFE06E92582F8E222CE
:0D0C4500E58229F582E5833AF583E49322E8
:100C5200F8BB010DE58229F582E5833AF583E8F0D8
:100C6200225006E92582C8F622BBFE05E92582C884
:020C7200F2226C
:10080000E51B240FF8E6051B22780C300702780F51
:10081000E475F001120C86020C0C2000EB7F2ED246
:10082000008018EF540F2490D43440D4FF30040BD0
:10083000EF24BFB41A0050032461FFE51C600215C9
:100840001C051FE51F7002051E30070D780CE475AE
:10085000F001120C86EF020C740210CC7403D20764
:100860008003E4C207F51B8B0C8A0D890EE4F51C8E
:10087000F51EF51FE51C60077F2012083B80F5750B
:100880001DFFC201C200C202C203C205C206C208E5
:10089000120809FF700D3007057F0012084CAF1FCA
:1008A000AE1E22B4255FC2D5C204120809FF24D0AF
:1008B000B40A00501A75F00A781C30D50508B6FF46
:1008C0000106C6A426F620D5047002D20380D924DE
:1008D000CFB41A00EF5004C2E5D204020A4CD20190
:1008E00080C6D20080C0D20280BCD2D580BAD205E8
:1008F00080B47F2012083B2002077401B51C004021
:10090000F1120800FF12083B020874D208D20680D8
:1009100095120800FB120800FA120800F94A4B7001
:1009200006791D7A0B7BFF20022EE51C602A7E00D3
:100930008E82758300120C2560060EEE651D70F028
:10094000C2D5EBC0E0EAC0E0E9C0E0EE120A93D005
:10095000E0F9D0E0FAD0E0FB120C0CFF60AAEBC08B
:10096000E0EAC0E0E9C0E012083BD0E02401F9D0A1
:10097000E03400FAD0E0FBE51D0460DCD51DD98031
:10098000877BFF7A0A798FD202809C791080027966
:1009900008C206C2088008D2D5790A8004790AC242
:1009A000D5E51D047002F51DE4FAFDFEFF120800F6
:1009B000FC7B08200113120800FD7B1030000A1296
:1009C0000800FE120800FF7B20EC3382D592D55040
:1009D00013C3E43000069FFFE49EFEE42001039D64
:1009E000FDE49CFCE4CBF8C201EC700CCFCECDCC86
:1009F000E824F8F870F38017C3EF33FFEE33FEED11
:100A000033FDEC33FCEB33FB994002FB0FD8E9EBF1
:100A1000300105F8D0E0C448B201C0E00AEC4D4E08
:100A20004F78207B0070C2EAB51D0040BCC0E012C8
:100A30000A95D0F0D0E0200104C4C0E0C4B201C0E7
:100A4000F0120824D0F0D5F0EB020874120C9609CD
:100A50001153098B5808E24C08DE42098F4F099761
:0F0A60004409974908F743099D550981460981C3
:100A6F00450981470B3D5008E62D08EA2E090D2B4D
:100A7F0008EE23090B200B262A08A64800000905BB
:100A8F003F3F3F00790AA2D5200314300509B91062
:100A9F00020404B9080104A2D52006025001042063
:100AAF0002689202B51C005034C0E07F2030031959
:100ABF007F30A20272067205500F120AECC202C2F8
:100ACF0006C205C2087F30800F300503E9C0E0126F
:100ADF00083B300503D0E0F9D0E0B51CCC3005174A
:100AEF007F30B9100C12083B7F583004077F788095
:100AFF0003B9080312083B3002057F2D02083B7F24
:100B0F00202008F87F2B2006F322920280CF286E38
:100B1F00756C6C2900D2011208003001F8C20178FF
:100B2F001C30D50108F60208A62D5043495812086B
:100B3F00002403B405004001E4900B389312082CF5
:0D0B4F00743A12082CD203751C0402098BA5
:100E9E00020FEBE493A3F8E493A34003F68001F270
:100EAE0008DFF48029E493A3F85407240CC8C33355
:100EBE00C4540F4420C8834004F456800146F6DF24
:100ECE00E4800B010204081020408090115CE47E47
:100EDE00019360BCA3FF543F30E509541FFEE49319
:100EEE00A360010ECF54C025E060A840B8E493A3E0
:100EFE00FAE493A3F8E493A3C8C582C8CAC583CA0B
:100F0E00F0A3C8C582C8CAC583CADFE9DEE780BEC2
:01116E000080
:100C7400BB010689828A83F0225002F722BBFE015F
:020C8400F32259
:100C8600FAE6FB0808E6F925F0F618E6CA3AF6226F
:100C9600D083D082F8E4937012740193700DA3A3ED
:100CA60093F8740193F5828883E473740293686001
:060CB600EFA3A3A380DF01
:1010CC00EFB40A07740D1210D7740A309811A8994E
:1010DC00B8130CC2983098FDA899C298B811F63084
:0710EC0099FDC299F599225C
:00000001FF
