:04012B008000016BE4
:1001170002080000021A0000C180C181011200011B
:020127001300C3
:100003001203911203A7D2AF1203E61203D612030F
:08001300311203CAC2CB80F6D2
:03001B000200C41C
:1000C400C0E0C0D00509E50970020508640A4508C6
:1000D4007004F508F509051BE51B7002051A64C8D0
:1000E400451A7004F51AF51BD3E5159400E514942C
:1000F400004008E515151570021514D3E50D94009C
:10010400E50C94004008E50D150D7002150CD0D0D7
:03011400D0E03206
:10033100E5094508703FF5087509011203778F1229
:10034100E5126519FF5512F518E512F45FF50A85F6
:100351001219E518600675140B7515B8E519600BCF
:10036100E51545147005300102C201E50A6002D2AB
:0603710001E51545142210
:0C03CA00E51B451A7005F51A751B012291
:1003BA008E0C8F0DD3E50D9400E50C940050F522B8
:0503E1008E0E8F0F22BB
:0B03D6007FC87E001203E1750B30228F
:10037700E4FF20C4020F222095037F022220960368
:090387007F03222097037F04226A
:01039000224A
:1003A700438E4053890F758BCD758DD4C28FD28EF6
:0303B700D2AB22A4
:10039100E4F594F593F592F591F596F595F5B2F5A9
:0603A100B1F5B4F5B32232
:0303E600D2CA2256
:06001E008B218A228923D8
:10002400E4F528F527C3E5279402748094804003FF
:100034000200C3AB21AA22A923852882758300125A
:1000440002E224D0B40A00505B90005B75F003A474
:10005400C58325F0C5837302007902007B0200800A
:1000640002008502008A02008F02009402009902B5
:10007400009E0200A3802D752960802B7529DA80EB
:10008400267529F28021752966801C7529B680178A
:100094007529BE80127529E0800D7529FF800875C9
:1000A40029F680037529FCAB24AA25A92685278275
:0F00B400758300E52912030F052705280200298F
:0100C300221A
:06012F008B2A8A2B892CAB
:10013500E52F14601F14603A146066147003020101
:10014500DE24046003020214C2A5D283D2C2D2A760
:10015500D2A4800AC2A4D283D2C2D2A7D2A5AB2A86
:10016500AA2BA92C852F827583001202E2F5300295
:100175000214C2A7D283D2C2D2A4D2A5ED146012B2
:10018500146014146016240360030202147530FC15
:10019500807D75306080787530DA80737530F280D7
:1001A5006EC2C2D283D2A7D2A4D2A5E52EC413545F
:1001B5000730E0057530E08003E4F530E52E1313D4
:1001C50013541F30E00543301880035330E7E52E04
:1001D5001313543F30E035802EC283D2C2D2A7D24A
:1001E500A4D2A5E52EC4540F30E0057530E0800398
:1001F500E4F530E52EC31330E00543301880035392
:1002050030E7E52E30E00543300680035330F9E54D
:1002150030C4131313540124FF92A1E530C4131302
:1002250054031392A2E530C41354071392A3E53087
:10023500C4540F139280E530131313541F13928186
:10024500E5301313543F139282E530C3131392C361
:010255002286
:03000000020256A3
:0C025600787FE4F6D8FD75813002029D2F
:1002E200BB010CE58229F582E5833AF583E02250D1
:1002F20006E92582F8E622BBFE06E92582F8E2221B
:0D030200E58229F582E5833AF583E4932234
:10030F00F8BB010DE58229F582E5833AF583E8F024
:10031F00225006E92582C8F622BBFE05E92582C8D0
:02032F00F222B8
:10026200020003E493A3F8E493A34003F68001F2AF
:1002720008DFF48029E493A3F85407240CC8C3339D
:10028200C4540F4420C8834004F456800146F6DF6C
:10029200E4800B0102040810204080900117E47EE4
:1002A200019360BCA3FF543F30E509541FFEE49361
:1002B200A360010ECF54C025E060A840B8E493A328
:1002C200FAE493A3F8E493A3C8C582C8CAC583CA53
:1002D200F0A3C8C582C8CAC583CADFE9DEE780BE0B
:0101290000D5
:00000001FF
