:04012B008000016BE4
:1000F6005354433848384B363455205541525432C0
:1001060020546573742050726F6772616D6D65213E
:080116000D0A002530326400DF
:1009880002220000023F0000C18AC18B013600012B
:02099800370026
:1008700012090612099B7F0212001ED2AF1209BE96
:1008800012011E7BFF7A0079F6120003E53B653A00
:1008900060232009207400253BF582E43400F583B1
:1008A000E0F59BD209053BC3E53B944074809480FE
:1008B0004003E4F53B1207A3120812C2CBC285C263
:0308C0008680C966
:03001B0002048B51
:10048B00C0E0C0F0C083C082C0D075D000C000C037
:10049B0001C002C003C004C005C006C0070523E5A8
:1004AB002370020522640A45227004F522F5230508
:1004BB0040E5407002053F64C8453F7004F53FF5C9
:1004CB0040D3E5399400E53894004008E5391539F7
:1004DB0070021538D3E52E9400E52D94004008E505
:1004EB002E152E7002152D7B007A007924AD371254
:1004FB0005D97B007A007929AD371206780537D3F9
:10050B00E5379403748094804003753700D007D08F
:10051B0006D005D004D003D002D001D000D0D0D06B
:08052B0082D083D0F0D0E03251
:1007A300E52345227068F52275230112096E8F3601
:1007B300E536653DFF5536F53CE536F45FF52885AE
:1007C300363DE53C600675380B7539B8E53D600B81
:1007D300E53945387005300B02C20BE5286002D2BB
:1007E3000BE53945386027300A24E52824FE6010DC
:1007F30014601314601624037014A2B2B392B222CD
:0F080300A285B3928522A286B3928622052F2268
:10081200E540453F7057F53F754001750FFF751074
:1008220001751119F512852F13FB7A007932120125
:100832008B750F007510007511247B007A007932D8
:10084200120533750FFF75100175111975120085A8
:100852002F137B007A00793212018B750F0075100D
:0E086200007511297B007A00793212053322CD
:1009AE008E2D8F2ED3E52E9400E52D940050F5223A
:05003D008E308F31221E
:0B011E007FC87E0012003D753E3022BD
:100003001200466010F59BD2092009FD740129F9FD
:06001300E43AFA80EB2242
:10095400AD07AC06538EEF538EF7438E048CD6AF9F
:0A096400058FD753AFFB438E10221E
:10001E00EF640270197FE87EFF120954539A7F43F2
:0F002E00AF01439A1053BAFEC209F53BF53A22CF
:030043000208C3ED
:1008C300C0E0C083C082C0D0E59A54016021539A2E
:1008D300FE7400253AF582E43400F583E59BF005C8
:1008E3003AC3E53A9440748094804003753A00E536
:1008F3009A54026005539AFDC209D0D0D082D083A6
:03090300D0E0320F
:10096E00E4FF2081020F222080037F022220C60393
:09097E007F032220C5037F04223F
:01098700224D
:10099B00438E4053890F758BCD758DD4C28FD28EFC
:0309AB00D2AB22AA
:10090600759460E4F593759208F591759633F595AF
:1009160075B22CF5B1F5B4F5B375CA05F5C9F5CCC4
:07092600F5CBF5E2F5E1223B
:0309BE00D2CA2278
:060533008B0C8A0D890EFD
:10053900E4F513F512C3E512940274809480400324
:100549000205D8AB0CAA0DA90E851382758300127A
:10055900005F24D0B40A00505B90057075F003A4C5
:10056900C58325F0C5837302058E020590020595A2
:1005790002059A02059F0205A40205A90205AE0219
:1005890005B30205B8802D751460802B7514DA80C7
:10059900267514F28021751466801C7514B68017AF
:1005A9007514BE80127514E0800D7514FF800875EE
:1005B90014F680037514FCAB0FAA10A911851282D9
:0F05C900758300E51412008C0512051302053E20
:0105D8002200
:0605D9008B088A09890A63
:1005DF00ED14601414601B14602A24037040D2B20F
:1005EF00C293C2B5C2C88012D2C8C293C2B5C2B23A
:1005FF008008D2B5C293C2C8C2B2AB08AA09A90A71
:10060F008D828012D293C2B5C2C8C2B2AB08AA09FA
:10061F00A90AAF058F8275830012005FF50BE50BFA
:10062F00F4FFC4131313540124FF92B3EFC4131335
:10063F0054031392B6E50BF4FFC4135407139296A9
:10064F00EFC4540F139294E50BF4FF131313541FBD
:10065F001392C7EF1313543F1392B4E50BF4FFC378
:08066F0013139297EF1392950B
:010677002260
:060678008B088A09890AC3
:10067E00ED14601414601B14602A24037040D2A180
:10068E00C2A0C2A5C2A48012D2A4C2A0C2A5C2A1F9
:10069E008008D2A5C2A0C2A4C2A1AB08AA09A90A09
:1006AE008D828012D2A0C2A5C2A4C2A1AB08AA0993
:1006BE00A90AAF058F8275830012005FF50BE50B5B
:1006CE00F4FFC4131313540124FF92A2EFC41313A7
:1006DE0054031392A6E50BF4FFC41354071392C3ED
:1006EE00EFC4540F1392C1E50BF4FF131313541FF1
:1006FE001392B7EF1313543F1392A3E50BF4FFC3FA
:08070E00131392C4EF1392C211
:0107160022C0
:03000000020717DD
:0C071700787FE4F6D8FD75814002075E93
:10004600BB010689828A83E0225002E722BBFE02B8
:09005600E32289828A83E49322EB
:10005F00BB010CE58229F582E5833AF583E0225056
:10006F0006E92582F8E622BBFE06E92582F8E222A0
:0D007F00E58229F582E5833AF583E49322BA
:10008C00F8BB010DE58229F582E5833AF583E8F0AA
:10009C00225006E92582C8F622BBFE05E92582C856
:0200AC00F2223E
:10012F00E51B240FF8E6051B22780C300702780F29
:10013F00E475F0011200C00200462000EB7F2ED2C2
:10014F00008018EF540F2490D43440D4FF30040BA8
:10015F00EF24BFB41A0050032461FFE51C600215A1
:10016F001C051FE51F7002051E30070D780CE47586
:10017F00F0011200C0EF0200AE02092D7403D20786
:10018F008003E4C207F51B8B0C8A0D890EE4F51C66
:10019F00F51EF51FE51C60077F2012016A80F575BB
:1001AF001DFFC201C200C202C203C205C206C208BD
:1001BF00120138FF700D3007057F0012017BAF1F52
:1001CF00AE1E22B4255FC2D5C204120138FF24D05F
:1001DF00B40A00501A75F00A781C30D50508B6FF1E
:1001EF000106C6A426F620D5047002D20380D924B6
:1001FF00CFB41A00EF5004C2E5D20402037BD20140
:10020F0080C6D20080C0D20280BCD2D580BAD205BF
:10021F0080B47F2012016A2002077401B51C0040D0
:10022F00F112012FFF12016A0201A3D208D2068038
:10023F009512012FFB12012FFA12012FF94A4B7061
:10024F0006794C7A047BFF20022EE51C602A7E0083
:10025F008E8275830012005F60060EEE651D70F0D2
:10026F00C2D5EBC0E0EAC0E0E9C0E0EE1203C2D0B5
:10027F00E0F9D0E0FAD0E0FB120046FF60AAEBC035
:10028F00E0EAC0E0E9C0E012016AD0E02401F9D051
:10029F00E03400FAD0E0FBE51D0460DCD51DD98009
:1002AF00877BFF7A0379BED202809C791080027916
:1002BF0008C206C2088008D2D5790A8004790AC21A
:1002CF00D5E51D047002F51DE4FAFDFEFF12012FA6
:1002DF00FC7B0820011312012FFD7B1030000A1246
:1002EF00012FFE12012FFF7B20EC3382D592D550C8
:1002FF0013C3E43000069FFFE49EFEE42001039D3C
:10030F00FDE49CFCE4CBF8C201EC700CCFCECDCC5D
:10031F00E824F8F870F38017C3EF33FFEE33FEEDE8
:10032F0033FDEC33FCEB33FB994002FB0FD8E9EBC9
:10033F00300105F8D0E0C448B201C0E00AEC4D4EE0
:10034F004F78207B0070C2EAB51D0040BCC0E012A0
:10035F0003C4D0F0D0E0200104C4C0E0C4B201C097
:10036F00F0120153D0F0D5F0EB0201A31200D0022E
:10037F00405302BA5802114C020D4202BE4F02C640
:0F038F004402C64902264302CC5502B04602B0D2
:10039E004502B047046C5002152D02192E023C2B5B
:1003AE00021D23023A2004552A01D54800000234CA
:1003BE003F3F3F00790AA2D5200314300509B9103A
:1003CE00020404B9080104A2D5200602500104203B
:1003DE0002689202B51C005034C0E07F2030031931
:1003EE007F30A20272067205500F12041BC202C2A7
:1003FE0006C205C2087F30800F300503E9C0E01247
:10040E00016A300503D0E0F9D0E0B51CCC300517F9
:10041E007F30B9100C12016A7F583004077F788044
:10042E0003B9080312016A3002057F2D02016A7FAB
:10043E00202008F87F2B2006F322920280CF286E10
:10044E00756C6C2900D20112012F3001F8C20178AF
:10045E001C30D50108F60201D52D50434958120122
:10046E002F2403B405004001E49004679312015B4E
:0D047E00743A12015BD203751C040202BA2D
:10072300020870E493A3F8E493A34003F68001F274
:1007330008DFF48029E493A3F85407240CC8C333D7
:10074300C4540F4420C8834004F456800146F6DFA6
:10075300E4800B0102040810204080900988E47EA5
:10076300019360BCA3FF543F30E509541FFEE4939B
:10077300A360010ECF54C025E060A840B8E493A362
:10078300FAE493A3F8E493A3C8C582C8CAC583CA8D
:10079300F0A3C8C582C8CAC583CADFE9DEE780BE45
:01099A00005C
:1000AE00BB010689828A83F0225002F722BBFE0131
:0200BE00F3222B
:1000C000FAE6FB0808E6F925F0F618E6CA3AF62241
:1000D000D083D082F8E4937012740193700DA3A3BF
:1000E00093F8740193F5828883E4737402936860D3
:0600F000EFA3A3A380DFD3
:10092D00EFB40A07740D120938740A309811A8999A
:10093D00B8130CC2983098FDA899C298B811F6302A
:07094D0099FDC299F5992202
:00000001FF
