:04012B008000016BE4
:100003005354433848205445535421002D2D2D2556
:0700130064002D2D2D2D00CE
:1009330002220000024F0000C18AC18B0146000160
:0209430047006B
:10001E001208AE1209461208FCD2AF12098D12094F
:10002E007A1200FA1207A112081EC2CBC285C2862E
:05003E001200FA80EF42
:03001B0002053BA0
:10053B00C0E0C0F0C083C082C0D075D000C000C086
:10054B0001C002C003C004C005C006C0070523E5F7
:10055B002370020522640A45227004F522F5230557
:10056B0050E5507002054F64C8454F7004F54FF5C8
:10057B0050D3E5499400E54894004008E5491549F6
:10058B0070021548D3E53E9400E53D94004008E524
:10059B003E153E7002153D7B007A007924AD471263
:1005AB0005E37B007A007929AD4712067C0547D31A
:1005BB00E5479403748094804003754700D007D0BF
:1005CB0006D005D004D003D002D001D000D0D0D0BB
:0805DB0082D083D0F0D0E032A1
:1007A100E52345227076F5227523011209198F463A
:1007B100E546654DFF5546F54CE546F45FF5288560
:1007C100464DE54C600675480B7549B8E54D600B23
:1007D100E54945487005300B02C20BE5286002D29D
:1007E1000BE54945486035300A32E52824FE601B97
:1007F10014602114602424037022053FD3E53F9443
:1008010003748094804015E4F53F22153FE53F7065
:0D0811000BF53F22A2CAB392CA22053F2276
:10081E00E550454F7051F54F755001750FFF75102E
:10082E000075110FF512853F13FB7A007942120104
:10083E008B750F007510007511247B007A007942BC
:10084E00120046750FFF7510007511157B007A00AA
:10085E00794212018B750F007510007511297B00FE
:08086E007A00794212004622D3
:10096A008E3D8F3ED3E53E9400E53D940050F5223E
:050125008E408F412215
:0B097A007FC87E00120125754E302260
:1008FC00759A1075D7E875D6FF438E04438E104356
:0D090C00AF0153BAFEC209E4F54BF54A22D3
:080985002009FDD2098F9B221D
:100959007E107D93AC071FEC6006DDFEDEFC80F4A3
:01096900226B
:0600FA007BFF7A00790390
:100100008B0C8A0D890EAB0CAA0DA90E12048B6004
:1001100013050EE50E7002050D14F912048BFF1283
:05012000098580E222C8
:030043000208763A
:10087600C0E0C0D075D000C000C007E59A54016042
:1008860013539AFEAF4A054A742D2FF8A69B534A76
:100896000F859B99E59A54026005539AFDC209D0CB
:0808A60007D000D0D0D0E032F1
:10091900E4FF2081020F222080037F022220C603E8
:090929007F032220C5037F042294
:0109320022A2
:10094600438E4053890F758BCD758DD4C28FD28E51
:03095600D2AB22FF
:1008AE00759460E4F593759208F591759633F59508
:1008BE0075B22CF5B1F5B4F5B375CA05F5C9F5CC1D
:0708CE00F5CBF5E2F5E12294
:03098D00D2CA22A9
:060046008B0C8A0D890EEF
:10004C00E4F513F512C3E512940474809480400314
:10005C000200F9AB0CAA0DA90E8513827583001250
:10006C0004A424D3B40D00506990008375F003A44C
:10007C00C58325F0C583730200D90200DE0200DEC1
:10008C000200AA0200AC0200B10200B60200BB02E0
:10009C0000C00200C50200CA0200CF0200D48032A8
:1000AC0075140C80307514DA802B75149E802675AF
:1000BC00142E80217514B6801C7514F680177514D7
:1000CC001C80127514FE800D75143E800875140288
:1000DC0080037514FCAB0FAA10A9118512827583CD
:0D00EC0000E5141204D105120513020051A5
:0100F90022E4
:0605E3008B088A09890A59
:1005E900ED1460101460151460242403703AD2933A
:1005F900C2B58004D2B5C293C2C88006D2C8C2931C
:10060900C2B5C2B2AB08AA09A90A8D828012D2B2B8
:10061900C293C2B5C2C8AB08AA09A90AAF058F829D
:100629007583001204A4F50BE50BF4FFC41313132F
:10063900540124FF92B3EFC4131354031392B6E584
:100649000BF4FFC4135407139296EFC4540F13927B
:1006590094E50BF4FF131313541F1392C7EF1313ED
:10066900543F1392B4E50BF4FFC313139297EF139E
:02067900929558
:01067B00225C
:06067C008B088A09890ABF
:10068200ED1460101460151460242403703AD2A093
:10069200C2A58004D2A5C2A0C2A48006D2A4C2A0D0
:1006A200C2A5C2A1AB08AA09A90A8D828012D2A151
:1006B200C2A0C2A5C2A4AB08AA09A90AAF058F822B
:1006C2007583001204A4F50BE50BF4FFC413131396
:1006D200540124FF92A2EFC4131354031392A6E50C
:1006E2000BF4FFC41354071392C3EFC4540F1392B5
:1006F200C1E50BF4FF131313541F1392B7EF131337
:10070200543F1392A3E50BF4FFC3131392C4EF13E8
:0207120092C291
:0107140022C2
:03000000020715DF
:0C071500787FE4F6D8FD75815002075C87
:10048B00BB010689828A83E0225002E722BBFE026F
:09049B00E32289828A83E49322A2
:1004A400BB010CE58229F582E5833AF583E022500D
:1004B40006E92582F8E622BBFE06E92582F8E22257
:0D04C400E58229F582E5833AF583E4932271
:1004D100F8BB010DE58229F582E5833AF583E8F061
:1004E100225006E92582C8F622BBFE05E92582C80D
:0204F100F222F5
:10012F00E51B240FF8E6051B22780C300702780F29
:10013F00E475F00112050502048B2000EB7F2ED22F
:10014F00008018EF540F2490D43440D4FF30040BA8
:10015F00EF24BFB41A0050032461FFE51C600215A1
:10016F001C051FE51F7002051E30070D780CE47586
:10017F00F001120505EF0204F30208D57403D2074C
:10018F008003E4C207F51B8B0C8A0D890EE4F51C66
:10019F00F51EF51FE51C60077F2012016A80F575BB
:1001AF001DFFC201C200C202C203C205C206C208BD
:1001BF00120138FF700D3007057F0012017BAF1F52
:1001CF00AE1E22B4255FC2D5C204120138FF24D05F
:1001DF00B40A00501A75F00A781C30D50508B6FF1E
:1001EF000106C6A426F620D5047002D20380D924B6
:1001FF00CFB41A00EF5004C2E5D20402037BD20140
:10020F0080C6D20080C0D20280BCD2D580BAD205BF
:10021F0080B47F2012016A2002077401B51C0040D0
:10022F00F112012FFF12016A0201A3D208D2068038
:10023F009512012FFB12012FFA12012FF94A4B7061
:10024F0006794C7A047BFF20022EE51C602A7E0083
:10025F008E827583001204A460060EEE651D70F089
:10026F00C2D5EBC0E0EAC0E0E9C0E0EE1203C2D0B5
:10027F00E0F9D0E0FAD0E0FB12048BFF60AAEBC0EC
:10028F00E0EAC0E0E9C0E012016AD0E02401F9D051
:10029F00E03400FAD0E0FBE51D0460DCD51DD98009
:1002AF00877BFF7A0379BED202809C791080027916
:1002BF0008C206C2088008D2D5790A8004790AC21A
:1002CF00D5E51D047002F51DE4FAFDFEFF12012FA6
:1002DF00FC7B0820011312012FFD7B1030000A1246
:1002EF00012FFE12012FFF7B20EC3382D592D550C8
:1002FF0013C3E43000069FFFE49EFEE42001039D3C
:10030F00FDE49CFCE4CBF8C201EC700CCFCECDCC5D
:10031F00E824F8F870F38017C3EF33FFEE33FEEDE8
:10032F0033FDEC33FCEB33FB994002FB0FD8E9EBC9
:10033F00300105F8D0E0C448B201C0E00AEC4D4EE0
:10034F004F78207B0070C2EAB51D0040BCC0E012A0
:10035F0003C4D0F0D0E0200104C4C0E0C4B201C097
:10036F00F0120153D0F0D5F0EB0201A312051502E4
:10037F00405302BA5802114C020D4202BE4F02C640
:0F038F004402C64902264302CC5502B04602B0D2
:10039E004502B047046C5002152D02192E023C2B5B
:1003AE00021D23023A2004552A01D54800000234CA
:1003BE003F3F3F00790AA2D5200314300509B9103A
:1003CE00020404B9080104A2D5200602500104203B
:1003DE0002689202B51C005034C0E07F2030031931
:1003EE007F30A20272067205500F12041BC202C2A7
:1003FE0006C205C2087F30800F300503E9C0E01247
:10040E00016A300503D0E0F9D0E0B51CCC300517F9
:10041E007F30B9100C12016A7F583004077F788044
:10042E0003B9080312016A3002057F2D02016A7FAB
:10043E00202008F87F2B2006F322920280CF286E10
:10044E00756C6C2900D20112012F3001F8C20178AF
:10045E001C30D50108F60201D52D50434958120122
:10046E002F2403B405004001E49004679312015B4E
:0D047E00743A12015BD203751C040202BA2D
:1007210002001EE493A3F8E493A34003F68001F2D0
:1007310008DFF48029E493A3F85407240CC8C333D9
:10074100C4540F4420C8834004F456800146F6DFA8
:10075100E4800B0102040810204080900933E47EFC
:10076100019360BCA3FF543F30E509541FFEE4939D
:10077100A360010ECF54C025E060A840B8E493A364
:10078100FAE493A3F8E493A3C8C582C8CAC583CA8F
:10079100F0A3C8C582C8CAC583CADFE9DEE780BE47
:0109450000B1
:1004F300BB010689828A83F0225002F722BBFE01E8
:02050300F322E1
:10050500FAE6FB0808E6F925F0F618E6CA3AF622F7
:10051500D083D082F8E4937012740193700DA3A375
:1005250093F8740193F5828883E473740293686089
:06053500EFA3A3A380DF89
:1008D500EFB40A07740D1208E0740A309811A8994C
:1008E500B8130CC2983098FDA899C298B811F63083
:0708F50099FDC299F599225B
:00000001FF
