:04012B008000016BE4
:0413550025326400D9
:10001E0004230A040302014100C105022800000264
:10002E00570000C181C18B014000C102024E003C4D
:10003E00013400C107025507D0C1864400000000FC
:0A004E000000C100014200013B0068
:1012D4001212BA12000312131FD2AF12134A1201D0
:0912E40014120FF412119C80F8A1
:03001B00020B785D
:100B7800C0E0C0F0C083C082C0D075D000C000C043
:100B880001C002C003C004C005C006C0070529E5AE
:100B98002970020528640A45287004F528F52905F6
:100BA80058E5587002055764C845577004F557F55D
:100BB80058053FE53F7002053EC394E8E53E9403BF
:100BC8005003020C51753E00753F00300333054455
:100BD800E54470020543943CE5439400402975437D
:100BE80000754400E54F154F7002154E14454E70C0
:100BF80016C203F54E754F3CF541532BFED2B48017
:100C0800067543007544003005230534C3E5349464
:100C180078748094804019753400C205C285532BBE
:100C2800FB532BFD7FC87E001213458003753400EB
:100C3800200916D20A0527C3E527943C74809480BE
:100C48004007752700D209C20AD3E5469400E54556
:100C580094004008E5461546700215450554E554CC
:100C680070020553D39464E55394004032755300E1
:100C7800755400AE37AF38E4FCFD1202D5E4FBFA38
:100C8800F97840120238E4FBFA7920784112012FF2
:100C98001203139000001206C7753700753800203C
:100CA800061B0548E54870020547C39488E5479444
:100CB800134010754700754800D206800675470036
:100CC80075480030055EE47F05FEFDFC900000E0FD
:100CD800F8A3E0F9A3E0FAA3E0FBD31206B6504468
:100CE800300641053DE53D7002053C9464E53C94C1
:100CF800004037E47F05FEFDFC900000E0F8A3A368
:100D0800A3E0D31206B65022753C00753D00C2051B
:100D1800C285C2047555077556D0532BFB532BFD5E
:100D2800D2028006753C00753D00200403020DC107
:100D3800D285053AE53A70020539C39556E53995E5
:100D4800554016E5562464FFE43555FEC3E53A9F41
:100D5800E5399E5004C2058066E5562464FFE435F3
:100D680055FEC3E53A9FE5399E4054E47F03FEFDF6
:100D7800FC900000E0F8A3E0F9A3E0FAA3E0FB127E
:100D880006B64014753900753A007555077556D082
:100D9800C204D205C2078027753900753A00C2041B
:100DA80075550B7556B8C205C285532BFB532BFDE1
:100DB8007FE87E031213458006753900753A00E511
:100DC800416030054CE54C7002054BC3940AE54B75
:100DD80094004006754B00754C0074232541F8E6D5
:100DE800FFC3E54C9FE54B94005004D2918006C2A6
:100DF800918002D291D3E52F9400E52E940040080B
:100E0800E52F152F7002152ED3E5339400E53294A3
:100E180000400CE533153370021532C2A68002D2A9
:100E2800A67B007A007949852B5D85425EAD41122B
:100E38000ECD0542D3E54294047480948040037536
:100E4800420030051B052DE52D7002052CFFAE2C48
:100E5800BE0121BF2C1E752C00752D00D285801473
:100E6800052DE52D7002052C6432452C7006F52CF5
:100E7800F52DC285A207920CA205920D1212EDE57E
:100E88003B24FFB3929430081B0551E551700205CD
:100E980050C394B8E550940B40107550007551003C
:100EA800C2088006755000755100D007D006D005DD
:100EB800D004D003D002D001D000D0D0D082D083CB
:050EC800D0F0D0E03283
:100FF400E5294528600302110FF52875290112120D
:10100400A08F40E5406552FF5540F54DE540F45F43
:10101400F52A854052E54D600675450B7546B8E5E1
:1010240052604DE54645457047300B44C20BE552CE
:1010340064017010C205A201B39201632B08532B03
:10104400FB12133FE55264047026300123300A205A
:10105400E53B70047F0180027F008F3BD2087F0054
:101064007E04121306AD3B7F007E04121285D20269
:10107400E52A6002D20BE5464545700302110820BB
:101084000103021108E52A24FD602914604C24029E
:101094007072A205B39205E4F547F548C206D2077B
:1010A400A205920412133F300505432B04805553C7
:1010B4002BFB8050A205B39205E4F547F548C20620
:1010C400C204D207532BFB7FC8FE1213453005051B
:1010D400432B02802F532BFD802AD203C2B4432B0F
:1010E400017FC87E001213450541D3E54194037482
:1010F400809480400FC203E4F541532BFED2B4F533
:0C1104004E754F3CA202920E12124922BE
:10119C00E55845577047F557755801200812756387
:1011AC00FF756413756555854E66854F67FB801416
:1011BC007563FF756413756555A294E43375660009
:1011CC00F5677B007A0079351207657563007564E5
:0E11DC00007565497B007A00793512006E229D
:03006B000211EA95
:0F11EA00C0E0C083C082C0D075D000C006C0076F
:1011F900AFBA43BA8090FD10E0FE600EE4F0EE3025
:0C120900E4080538E538700205378FBA9C
:0D121500D007D006D0D0D082D083D0E032F8
:100059008E2E8F2FD3E52F9400E52E940050F52294
:06133F00532BFD7FC8FEE8
:051345008E328F3322FF
:10124900300E1D7F647E001213457FC81200597F3E
:10125900641213457FC81200597F64121345C202F4
:011269002262
:100114007FC87E00121345752B307F007E041212B7
:040124006A8F3B2281
:1012A000E4FF20C4020F222095037F022220960330
:0912B0007F03222097037F042232
:0112B9002212
:1012ED00300D0E200C04C290D286300C04D290C268
:0912FD0086200D04D290D2862255
:10131F00438E4053890F758BCD758DD4C28FD28E6E
:03132F00D2AB221C
:1012BA0075946FE4F593759203F5917596BEF5955D
:0A12CA00F5B2F5B175B40CF5B322CE
:0B134A00D2A6D2B4D290D286C2852277
:1000030043BA8090FD20E4F090FD30F090FD00E0D5
:070013004410F053BA7F22F4
:06006E008B608A618962CB
:10007400E4F567F566C3E5669402748094804003F2
:10008400020113AB60AA61A96285678275830012BD
:10009400064724D0B40A00505B9000AB75F003A46B
:1000A400C58325F0C583730200C90200CB0200D0CA
:1000B4000200D50200DA0200DF0200E40200E902D5
:1000C40000EE0200F3802D756860802B7568DA807D
:1000D400267568F28021756866801C7568B680177D
:1000E4007568BE80127568E0800D7568FF800875BC
:1000F40068F680037568FCAB63AA64A965856682AB
:0F010400758300E56812068605660567020079B7
:0101130022C9
:060ECD008B598A5A895B73
:100ED300E55E14601F14603A146066147003020F19
:100EE3007C24046003020FB2C2A5D283D2C2D2A76C
:100EF300D2A4800AC2A4D283D2C2D2A7D2A5AB59AC
:100F0300AA5AA95B855E82758300120647F55F02C4
:100F13000FB2C2A7D283D2C2D2A4D2A5ED1460125B
:100F230014601414601624036003020FB2755FFC8F
:100F3300807D755F608078755FDA8073755FF2809E
:100F43006EC2C2D283D2A7D2A4D2A5E55DC4135484
:100F53000730E005755FE08003E4F55FE55D13139B
:100F630013541F30E005435F188003535FE7E55DCB
:100F73001313543F30E035802EC283D2C2D2A7D29E
:100F8300A4D2A5E55DC4540F30E005755FE080038E
:100F9300E4F55FE55DC31330E005435F1880035359
:100FA3005FE7E55D30E005435F068003535FF9E5E6
:100FB3005FC4131313540124FF92A1E55FC41313F9
:100FC30054031392A2E55FC41354071392A3E55F7E
:100FD300C4540F139280E55F131313541F139281AC
:100FE300E55F1313543F139282E55FC3131392C358
:010FF30022DB
:0D133200E4F5C7F5C5F5C675C380F5C42206
:10126A0075C78075F50C75C5018FC4EEFF8FC37500
:0B127A00C65A75C6A500AFC2021332B1
:1012850075C78075F50C75C5028FC4EEFF8FC38DCC
:0B129500C275C65A75C6A500021332D0
:1013060075C78075F50C75C5038FC4EEFF8FC37561
:09131600C65A75C6A50002133287
:10012F00EC4D6011E8497017ED33EC3304600DE4CA
:10013F00FCFFFEFD22E933E8330470F802037F125F
:10014F00034A58046009E4CC248150062850090260
:10015F000389284003020386C0E0EB4A7044B9804C
:10016F0006D0E0FB020375EF4E701CBD8008EBFF5D
:10017F00EAFEE9FD80EBE98DF0A4FEE5F00202183E
:10018F00E9CDF9EAFEEBFFEF89F0A4FCE5F0CE89AB
:10019F00F0A42EFFE435F0CD89F0A42DFEE435F068
:1001AF008067EF4E7005BD80D780C3EF8BF0A4AC96
:1001BF00F0EE8BF0A42CFCE435F0F8EF8AF0A42CD1
:1001CF00E5F038FCE433CB8DF0A42CFCE5F03BF8E4
:1001DF00EE8AF0A42CFCE5F038F8E433CF89F0A4D4
:1001EF002CFCE5F038CF3400CE89F0A42FFFE5F0DA
:1001FF003EFEE433C98DF0A42EFEE5F039CD8AF032
:10020F00A42FFFE5F03EFEE43DFD33D0E0FB5007A9
:10021F000BBB000F020389EC2CFCEF33FFEE33FE18
:06022F00ED33FD02036146
:10023500020389EC5D046005E85904700302037F3D
:1002450012034A580460F6EC4860F2EC7004FDFEB7
:10025500FF22C860DB2481C85009C398600250069C
:100265000203869850CAF582E9294B4A7005AB828C
:1002750002037575F0007C1A7880C3EF9BEE9AED4A
:1002850099400DC3EF9BFFEE9AFEED99FDE842F014
:10029500DC23ACF0D0E0FFD0E0FED0E0FDAB822067
:1002A500E7101BEB60BAEC2CFCEF33FFEE33FEEDF1
:1002B50033FD020361E803F830E705C0F075F0008F
:1002C500EF2FFFEE33FEED33FD40B830E7C280AAD5
:1002D50075F020800E75F010800575F0087D007EA4
:1002E500007F003392D530D5031206A8EC334010B9
:1002F500EF33FFEE33FEED33FDEC33FCD5F0ED22AD
:0E030500E5F0247EA2D513CC92E7CDCEFF22E8
:10031300EDD2E7CD33EC3392D524814006E4FFFEE2
:10032300FDFC22FCE4CFCECDCC24E0501174FF8041
:10033300EDC3CC13CCCD13CDCE13CECF13CF0470DE
:07034300F030D5DE0206A830
:10070900E5772463F8E60577227860301502786387
:10071900E475F0011206D302062E200EEB7F2ED2CD
:100729000E8018EF540F2490D43440D4FF30120BAC
:10073900EF24BFB41A0050032461FFE57860021565
:1007490078057BE57B7002057A30150D7860E475D4
:10075900F0011206D3EF0206740212227403D215B5
:100769008003E4C215F5778B608A618962E4F578C4
:10077900F57AF57BE57860077F2012074480F575E7
:1007890079FFC20FC20EC210C211C213C214C2161F
:10079900120712FF700D3015057F00120755AF7B48
:1007A900AE7A22B4255FC2D5C212120712FF24D035
:1007B900B40A00501A75F00A787830D50508B6FFE2
:1007C9000106C6A426F620D5047002D21180D924C8
:1007D900CFB41A00EF5004C2E5D212020A42D20F76
:1007E90080C6D20E80C0D21080BCD2D580BAD213B6
:1007F90080B47F201207442010077401B5780040A7
:10080900F1120709FF12074402077DD216D214809C
:1008190095120709FB120709FA120709F94A4B70E1
:100829000679397A0B7BFF20102EE578602A7E0045
:100839008E8275830012064760060EEE657970F0A8
:10084900C2D5EBC0E0EAC0E0E9C0E0EE120AA2D0EE
:10085900E0F9D0E0FAD0E0FB12062EFF60AAEBC067
:10086900E0EAC0E0E9C0E0120744D0E02401F9D091
:10087900E03400FAD0E0FBE5790460DCD579D98071
:1008890087D21080A2120A8560F7E57970010412F7
:100899000394A979600DE579600914F579120B2C97
:1008A900EF60F3EA30E702F404C3995077EAF425DC
:1008B900790430E701E404F579800D120A8560C1F5
:1008C900EA05792579120394EA7876F630E701E4A6
:1008D900257904D5790420130114120AA2E4C0E091
:1008E900120B2C7876E6601320E70714F612072C12
:1008F900802204F6D0E014C0E07F0012072CE579CD
:1009090060071207231579800B301303120723D0D0
:10091900E002077DD0E00480C5120A8560A0E57970
:10092900041203947876EAF6E5792013026001044B
:050939002404120AA2D3
:10093E0074FF04C0E0120B2C12072CE57920130271
:10094E006003120723D0E0B579E87F4512073678A9
:10095E0076E67F2B30E7047F2DF404C0E0120744C7
:10096E00D0E075F00A84C0F012072DD0E012072DEA
:10097E0002077D791080027908C214C2168008D24F
:10098E00D5790A8004790AC2D5E579047002F57921
:10099E00E4FAFDFEFF120709FC7B08200F13120775
:1009AE0009FD7B10300E0A120709FE120709FF7BA4
:1009BE0020EC3382D592D55013C3E4300E069FFF40
:1009CE00E49EFEE4200F039DFDE49CFCE4CBF8C204
:1009DE000FEC700CCFCECDCCE824F8F870F3801766
:1009EE00C3EF33FFEE33FEED33FDEC33FCEB33FBA5
:1009FE00994002FB0FD8E9EB300F05F8D0E0C44860
:100A0E00B20FC0E00AEC4D4E4F78207B0070C2EA68
:100A1E00B5790040BCC0E0120AA4D0F0D0E0200F9F
:100A2E0004C4C0E0C4B20FC0F012072DD0F0D5F050
:100A3E00EB02077D1206E3081A5309815807EB4CA7
:100A4E0007E74209854F098D44098D49080043097E
:100A5E00935508C446092245088E470B595007EF97
:100A6E002D07F32E08162B07F7230814200B422A06
:100A7E0007AF480000080EE579B4FF03757906123A
:100A8E000709FC120709FD120709FE120709FF7874
:100A9E006F0203C3790AA2D5201114301309B910BD
:100AAE00020404B9080104A2D52014025001042046
:100ABE0010689210B578005034C0E07F20301119C4
:100ACE007F30A21072147213500F120AFBC210C2A2
:100ADE0014C213C2167F30800F301303E9C0E01228
:100AEE000744301303D0E0F9D0E0B578CC301317BB
:100AFE007F30B9100C1207447F583012077F788070
:100B0E0003B908031207443010057F2D0207447FF6
:100B1E00202016F87F2B2014F322921080CF7F0016
:100B2E00B407005005246FF8E6FF22286E756C6C32
:100B3E002900D20F120709300FF8C20F787830D57E
:100B4E000108F60207AF2D50434958120709240336
:100B5E00B405004001E4900B5493120735743A1219
:0A0B6E000735D211757804020981E1
:10034A00E9D2E7C933E833F892D5EDD2E7CD33ECF9
:07035A0033FC5002B2D52272
:10036100EC30E7100FBF000C0EBE00080DBD0004FD
:100371000BEB6014A2D5EB13FCED92E7FD2274FFA9
:10038100FCFDFEFF22E480F8A2D574FF13FC7D8002
:03039100E480EF16
:10039400F920E72824F950037907E4F42402FB1830
:1003A400DBFDE624FB5014E9600DE4F618E604F6E0
:0F03B400B40A08E4F6D9F57401F60A22C2D5227C
:1003C300ED33EC3392D5FA602AB4FF33EDC2E77B09
:1003D300FF60067A0379E8E4227A0379F120D504F1
:1003E3007A0379EC224E614E002B494E46002D498B
:1003F3004E4600E47A08F608DAFC7B00740722E82C
:10040300C0E0ECC0E0EDC0E0EEC0E0EFC0E0EA75B4
:10041300F010A4CAABF075F04DA42BFBE435F0FC4F
:10042300EA2410FAEB34C5FBEC34D9FCEDC2E7FF48
:1004330075F056A4F42411C5F0F434C58FF0A42A42
:10044300E5F03BE43CF620E7141205EED0E0FFD0E4
:10045300E0FED0E0FDD0E0FC1202388014F4041278
:1004630005EED0E0FFD0E0FED0E0FDD0E0FC1201CD
:100473002FD0E0F8E6FAEDD2E7CD33EC332482FB5C
:10048300E4C3CF33CFCE33CECD33CD33DBF37B07D2
:1004930075F00A846004F6081B0AE5F0F6088FF08D
:1004A300740AA4FFACF08EF0740AA42CFEACF050D6
:1004B300010C8DF0740AA42CFDE435F0F608DBDEA4
:0304C30074072299
:1004C60002037FE86480F8E933E83360110460F0E2
:1004D600ED33EC337009E8FCE9FDEAFEEBFF22049C
:1004E60060DED3EB9FEA9EE99DE8C2E78CF0C2F797
:1004F60095F0400CE8CCF8E9CDF9EACEFAEBCFFB63
:1005060012034A85D0F05804700320D5B3E804706E
:10051600075002B2D502038992D5EC0460F7E4CC09
:10052600C0E0C398F8603B94186008400DD0E0FB2B
:10053600020361E4FBFAC9FC8028E830E406E4C95A
:10054600FBE4CAFCE830E305E4C9CACBFCE854077F
:100556006010F8C3E913F9EA13FAEB13FBEC13FC8A
:10056600D8F130F52FC3E49CFCEF9BFFEE9AFEED2D
:1005760099FDD0E0FBEF4E4D4C701222DB030203D7
:1005860086EC2CFCEF33FFEE33FEED33FDED30E76A
:10059600EB020361EF2BFFEE3AFEED39FDD0E0FBF7
:1005A60050130BBB0003020389ED13FDEE13FEEFA0
:0805B60013FFEC13FC020361CA
:1005BE003F8000004120000042C80000447A000045
:1005CE00461C400047C35000497424004B189680C7
:1005DE004CBEBC205A0E1BCA6753C21C749DC5AEBE
:1005EE00FB60065407601C232312061CEB54386074
:1005FE000912060812061712012FECF8EDF9EEFAA1
:10060E00EFCB22EB12061780F1543803241C900511
:10061E00BEFE93FC0EEE93FD0EEE930ECE93FF22D6
:03000000021110DA
:0C111000787FE4F6D8FD75817B02115752
:10062E00BB010689828A83E0225002E722BBFE02CA
:09063E00E32289828A83E49322FD
:10064700BB010CE58229F582E5833AF583E0225068
:1006570006E92582F8E622BBFE06E92582F8E222B2
:0D066700E58229F582E5833AF583E49322CC
:10067400BB010689828A83F0225002F722BBFE0165
:02068400F3225F
:10068600F8BB010DE58229F582E5833AF583E8F0AA
:10069600225006E92582C8F622BBFE05E92582C856
:0206A600F2223E
:0E06A800C3E49FFFE49EFEE49DFDE49CFC2263
:1006B600EB9FF5F0EA9E42F0E99D42F0E89C45F09A
:0106C6002211
:0C06C700ECF0A3EDF0A3EEF0A3EFF022A6
:1006D300FAE6FB0808E6F925F0F618E6CA3AF62228
:1006E300D083D082F8E4937012740193700DA3A3A6
:1006F30093F8740193F5828883E4737402936860BA
:06070300EFA3A3A380DFB9
:10122200EFB40A07740D12122D740A309811A8999E
:10123200B8130CC2983098FDA899C298B811F6302C
:0712420099FDC299F5992204
:10111C000212D4E493A3F8E493A34003F68001F203
:10112C0008DFF48029E493A3F85407240CC8C333D4
:10113C00C4540F4420C8834004F456800146F6DFA3
:10114C00E4800B010204081020408090001EE47E15
:10115C00019360BCA3FF543F30E509541FFEE49398
:10116C00A360010ECF54C025E060A840B8E493A35F
:10117C00FAE493A3F8E493A3C8C582C8CAC583CA8A
:10118C00F0A3C8C582C8CAC583CADFE9DEE780BE42
:0100580000A7
:00000001FF
